:10400000000003201DB6000019B6000019B600001C
:1040100019B6000019B6000019B600000000000033
:1040200000000000000000000000000019B60000C1
:1040300019B600000000000019B600009DB600008F
:1040400019B6000019B6000019B6000019B6000034
:1040500019B6000019B6000019B6000019B6000024
:1040600019B6000019B6000019B6000019B6000014
:10407000B9B40000BFB40000C5B40000CBB4000068
:10408000D1B40000D7B40000DDB40000E3B40000F8
:10409000E9B40000EFB40000F5B40000FBB4000088
:1040A00001B5000007B500000DB5000013B5000014
:1040B00019B6000019B6000019B600002DA80000BE
:1040C0002DA800002DA800002DA800002DA800009C
:1040D00019B6000019B6000019B6000019B60000A4
:1040E00019B6000019B6000019B6000019B6000094
:1040F0000000000019B6000019B6000019B6000053
:1041000019B6000019B6000019B6000019B6000073
:1041100019B6000019B600006D5A0000795A000067
:104120007D5A0000815A000019B6000019B600003F
:1041300019B6000019B6000019B6000019B6000043
:1041400019B6000019B6000059A8000065A80000C3
:1041500069A800006DA8000019B6000019B600009B
:1041600019B6000019B6000019B6000019B6000013
:1041700019B6000019B6000019B6000019B6000003
:10418000D1630000D7630000DB630000DF63000041
:1041900019B6000019B6000019B6000019B60000E3
:1041A00019B6000019B6000019B6000019B60000D3
:1041B00019B6000019B6000019B6000019B60000C3
:1041C00019B6000019B6000019B6000019B60000B3
:1041D00019B6000019B6000019B6000019B60000A3
:1041E00019B6000019B6000019B6000019B6000093
:1041F00019B600000000000019B6000019B6000052
:1042000019B6000019B6000019B6000019B6000072
:1042100019B6000019B6000019B6000019B6000062
:1042200019B6000019B6000019B6000019B6000052
:1042300019B6000019B6000019B6000019B6000042
:1042400019B6000019B6000019B6000019B6000032
:1042500019B6000019B6000019B6000019B6000022
:1042600019B6000010B5054C237833B9044B13B1CF
:104270000448AFF300800123237010BD50030020D9
:1042800000000000ECFF000008B5034B1BB1034920
:104290000348AFF3008008BD000000005403002075
:1042A000ECFF000038B504460025C0E92755C0E9F9
:1042B0004355044900F5077007F07DF9A4F828522A
:1042C000204638BD62FC000000F58E7300F50770D3
:1042D00003F8011B8342FBD1704730B590F81841B9
:1042E0008C4208D990F81751954282BF091802FBF9
:1042F000041282F81C3130BD00F58E73002200F5E7
:10430000077003F8012B8342FBD1704710B54FF4BF
:1043100080330024C0F81431A0F818410146FFF79B
:10432000EBFFA1F8284210BD70B504460D461646B5
:10433000FFF7ECFF40F201130120A4F8143184F8D8
:10434000160184F8175184F8186184F8290233465D
:104350002A460249BDE8704000F030BBF4F400008A
:10436000F0B5D0F89C50312D11DCD0F8A0403227A8
:104370002E1996FBF7F407FB1464E4B204EB440433
:1043800004440135E17022716371C0F89C50F0BDA6
:1043900070B5D0F80C41312C11DCD0F81031322638
:1043A000E51895FBF6F306FB1353DBB200EB430372
:1043B000013483F8A61083F8A720C0F80C4170BD23
:1043C00038B5012B0D4608480CBF21212021144689
:1043D00001F026FC2946044801F022FC214602484F
:1043E000BDE8384001F01CBC980C00202DE9F347D3
:1043F000044690F8185190F81761B74801F03CFC5A
:10440000C0B2212818DD932870DC8F280BDC5028DF
:1044100000F01F825138012868D8AF4802B0BDE8CB
:10442000F04701F029BC9138022800F22182DFE830
:1044300010F036024C027002212857D8DFE810F045
:1044400022003F005B006C007A0081007D00560076
:104450007D00560056005600560056005600560085
:104460008B009B00A400AA00B100E7000C01310101
:104470003601310144018801BC0156005600560046
:10448000F001000200219448B5FBF6F501F0C8FBED
:104490000121914801F0C4FB29468F4801F0C0FB7F
:1044A00000218D4801F0BCFB02218B4801F0B8FBD4
:1044B0002946894802B0BDE8F04701F0B1BB864803
:1044C000854E012101F0ACFB002504F50777D4F8F7
:1044D00024329D420DD22946384607F08FF80178E4
:1044E0003046013501F09CFB202DF0D102B0BDE833
:1044F000F0870021F4E7784F002504F5077438466B
:1045000001F0BAFB29460646204607F077F8013548
:10451000202D0670F3D1E9E702216F4801F080FBFE
:1045200001216D4801F07CFB00216B4801F078FB14
:104530000021BEE7684801F09FFB674801F09CFB43
:104540006BE70321644801F06BFB2946624801F0E8
:1045500067FB3146ADE7604801F08EFB05465E48DB
:1045600001F08AFB0023C2B2E9B2204602B0BDE8E6
:10457000F047FFF7B2BE584801F07EFB05465648AB
:1045800001F07AFB0F23EEE7204602B0BDE8F047CA
:10459000FFF7B2BE0F21204602B0BDE8F047FFF79B
:1045A00093BE4D4801F068FBC0B2102801D910300D
:1045B000FAE700F0F806484801F05EFBC5B2102D9E
:1045C00002D91035EDB2FAE705F0F80505F1080853
:1045D000DFF804A15FFA88F8504601F04DFB002790
:1045E0005FFA80F949FA07F313F0010306EB0701BC
:1045F00018BF0F23C9B22A4620460137FFF76DFEC8
:10460000082FEFD10135EDB2A845E5D16EE732486C
:1046100001F032FBC0B2102801D91030FAE700F0E7
:10462000F8052D4801F028FBC7B22B4801F024FB08
:1046300000265FFA80F848FA06F313F0010305EB51
:10464000060118BF0F23C9B23A4620460136FFF7CC
:1046500044FE082EEFD149E71F4801F00DFBC7B219
:104660001D4801F009FBC0B2102801D91030FAE74B
:1046700000F0F805184801F0FFFA00265FFA80F80C
:1046800048FA06F313F0010305EB060218BF0F23E7
:10469000D2B2394620460136FFF71FFE082EEFD171
:1046A00024E70D4801F0E8FAC1B274E70A4801F0C6
:1046B000E3FA0546084801F0DFFA0646064801F02D
:1046C000DBFAF2B2C3B24FE7034801F0D5FAC0B249
:1046D000102803D91030FAE7980C002000F0F806F3
:1046E000AE4801F0C9FAC5B2102D02D91035EDB2AD
:1046F000FAE7DFF8A8A205F0F8054FF00F094FF030
:104700000008002707EB0803F119D807C9B21AD42B
:104710005046019101F0B0FA01995FFA80F9C0F3B7
:1047200003132A4620460137FFB2FFF7D6FD082FB4
:10473000E8D108F108085FFA88F80135B8F1400FB0
:10474000EDB2DED1D2E62A46204619F00F03EAE7A1
:10475000924801F091FAC0B2102801D91030FAE75E
:1047600000F0F8068D4801F087FAC2B2102A02D98B
:104770001032D2B2FAE7DFF8249202F0F8050027EF
:104780004FF00F08F119FA07C9B210D44846019149
:1047900001F072FA01995FFA80F8C0F303132A4618
:1047A00020460137FFF799FD082FEBD19EE62A46F8
:1047B000204618F00F03F4E7784801F05DFAC1B223
:1047C000102902D91031C9B2FAE7744801F0F8058E
:1047D00001F052FAC0B2102801D91030FAE7DFF820
:1047E000BC9100F0F80600274FF00F08F219FB0704
:1047F000D2B210D44846019201F03EFA019A5FFA13
:1048000080F8C0F30313294620460137FFF765FD02
:10481000082FEBD16AE62946204618F00F03F4E78B
:104820005E4801F029FA05465C4801F025FA0023AC
:10483000C2B2E9B2204602B0BDE8F047FFF790BD32
:10484000564801F019FA0546544801F015FA0123BB
:10485000EEE7524801F010FA0546504801F00CFA14
:10486000E9B242B2204602B0BDE8F047FFF790BD82
:104870004A4801F001FA0646484801F0FDF90546AC
:10488000464801F0F9F9B30103F47F5353FA85F375
:10489000FF2B3FF72BAE1C4484F81C0126E63F4853
:1048A00001F0EAF905463D4801F0E6F9AB0103F4F1
:1048B0007F53C0B203F1400204F58E74FF2BD8BFC2
:1048C000E05401339A42F9D110E63448DFF8CC8045
:1048D00001F0D2F9800100F47F552C4400260F230B
:1048E00016F0010F05EB060710D1404601F0C4F9A0
:1048F000C3B2C0F30312FF2F06F1010698BF84F87C
:104900001C21402E04F10104EAD1EFE513F00F025F
:10491000F1E7224801F0B0F90546204801F0ACF972
:10492000C7B21E4801F0A8F9C6B21C4801F0A4F9AC
:10493000B742C1B24FEA851000F47F5319D3F8187B
:104940003A4604F58E753F2A20D9402FC7F1400220
:1049500088BF00223A4453FA82F31C440022D0B2AA
:10496000B042BFF4C3ADFF2B98BF84F81C110132D5
:10497000F5E73B4404F58E747A1CFF2BD7B2D8BF01
:10498000E154BE4203F10103F6D1AFE5FF2802F185
:104990000102D8BF2954D2B20130D4E7980C0020CC
:1049A00010B50446044801F047F920B12046BDE89F
:1049B0001040FFF71BBD10BD980C00200EB410B5C1
:1049C0000028B5B011DD002138ACC42203A8029143
:1049D000019407F0CBFEC821379A234602A808F0BD
:1049E0008FFD044802A905F0ADFF35B0BDE81040C9
:1049F00003B07047980C0020002070477047704744
:104A0000C0F38101C0F3071200F00300032808B5CA
:104A100005D101230448FFF7D3FC002008BD02287C
:104A2000FBD10023F6E700BF7C03002010B504464D
:104A300000F5077006F07AFD204610BD0248034BD2
:104A400040F8143B00F0D2BCC00900206CF5000017
:104A50002DE9F8430024154F154DDFF85C80DFF891
:104A60005490224655F8043B17F8016BDBB29E4286
:104A700010D018F80630C3EB03231A1223F0FF03FB
:104A800003EB02431A44A1B2484600F0E8F945F8A6
:104A9000046C01220134102CE4D122B1BDE8F843AA
:104AA000044800F0E9B9BDE8F88300BF980400208D
:104AB000AC050020B80900208CF500002DE9FF416D
:104AC00048494948494D01F0CBF94949464801F068
:104AD000CAF94849444801F0C9F947484FF4E1315F
:104AE00001F018F90124454985F8154105F50770CD
:104AF00006F074FD042211462846FFF715FC06F067
:104B0000D7FD3F4B18603F4B1C7008242846FFF729
:104B100047FF642006F01AFE013CF7D13A4800F046
:104B200041F960B93949344805F00CFF3849324839
:104B300005F008FF3749304805F004FFFEE7324E24
:104B4000DFF8D88001270025EAB20323214630464A
:104B50000097039200F057F9039A00970223214629
:104B6000304600F050F90135039A4346214630465D
:104B700000F035F9042DE7D10134E4B2042CE2D180
:104B80002548FF2100F026FD18480021FFF79CFB77
:104B9000FFF75EFF0024A1B26FF07F421A4800F0D9
:104BA0005EF9194800F068F90134322006F0CEFDB4
:104BB000102CF0D16FF07F420021134800F04FF924
:104BC000114800F059F9642006F0C0FD00220E489B
:104BD000114600F044F90C4804B0BDE8F04100F083
:104BE0004BB900BF04000020B40C00207C0300205F
:104BF0002400002044000020980C00206C030020BA
:104C0000A805002078030020B80900200DF5000059
:104C100025F500003BF50000D4090020014A000002
:104C200010B50B48FFF7BCFE0A4B1B7873B10A4C5A
:104C300006F03EFD2368C01A102807D9074800F087
:104C400033F9FFF705FF06F033FD206010BD00BF0C
:104C50007C03002078030020A8050020B80900206C
:104C600070B506F025FD1D4D1D4B1E4C18601E4EE7
:104C70001E49284606F09FFC28461D4D2246314617
:104C800007F068F81B49284606F095FC28461A4D9F
:104C90002246314607F05EF8184E2846FFF702FB21
:104CA00022461749284607F055F8164A164D2E2178
:104CB000304600F02FF822461449002007F04AF849
:104CC000012331461A46284600F067F82246284656
:104CD0000F49BDE8704007F03DB800BF6C030020ED
:104CE000A8050020000000202DB500004FF50000B1
:104CF000AC0900205AF500007C030020C009002008
:104D00002D4A0000640A0020B80900203D4A000036
:104D1000FF49000073B504460E461146154600F0E3
:104D200087F920460B4B40F8143B032252231021F5
:104D3000009500F045FB04F1440304F184020021D6
:104D400043F8041B9342FBD1204684F8406002B034
:104D500070BD00BF6CF5000070B50D4680F84010C6
:104D600004461646143000F0CFFB29460023324695
:104D7000204600F09CFA054610B1204600F0F8FAF3
:104D8000284670BD10B48C0801F0030101EBC4018A
:104D9000C9B25DF8044B00F061BA10B502704370FF
:104DA000416010BDF8B50446002584272378AB4246
:104DB00013DD00266378B3420DDD606805FB0363F5
:104DC00007FB03004FF0FF3290F84010FFF7C4FFDD
:104DD00020B10136EEE70135E8E70120F8BD70B5F6
:104DE000447840688D08960806FB045402F00302DC
:104DF000842501F0030105FB040001EB820100EBB7
:104E000081014B6470BDF0B414464578406804F0ED
:104E100003071A46A4088B0804FB053401F00306B7
:104E200084259DF8103006EB870105FB0400F0BCDB
:104E3000FFF7A8BFF0B44678406895088C0805FBDA
:104E40000644842502F0030C01F0030705FB04006F
:104E500007EB8C011A46F0BC143000F06ABB30B48A
:104E60004578AC001346B1FBF4F204FB1211C9B251
:104E700030BCD2B2FFF7DEBFF8B504460025842768
:104E80002378AB420FDD00266378B34209DD60680A
:104E900005FB036307FB0300143000F014FB01362D
:104EA000F2E70135ECE7F8BD2DE9F04F2DED028B6F
:104EB00083B0064600AF4FF0000933784B455FDD05
:104EC0004FEA89037B604FF0000A7578554554DD41
:104ED0007368842209FB05A502FB0535284600F00E
:104EE00047F904464FF4FA7006F014FC002C41D048
:104EF00002346B46E4B208EE103AE31D03F4FC738F
:104F0000ADEB030D69462246284600F017F9EB4643
:104F10004FEA8A014FF00008444528DD1BF80820BD
:104F20005009C2F3820C0CEB800C6CF38702BCF1CD
:104F30000F0F0BF8082017D805EB8C02526C9AB1B2
:104F40007B68707839600CF0030E03EBAC0C10FB3F
:104F50000CFC1BF808008E440EEB8C0C00F00300D8
:104F600040EA8C009047396808F10108D4E718EE50
:104F7000103A9D460AF1010AA7E709F101099CE7E9
:104F80000C37BD46BDEC028BBDE8F08FF0B5194B78
:104F900019491B78194F012202FA03F30B601849D3
:104FA0000E78184902FA06F60E6017490D7817496F
:104FB00002FA05F50D6016490C78164902FA04F458
:104FC0000C6015490878154902FA00F00860144988
:104FD000097802FA01F13960124F33433F782B43CD
:104FE0002343BA400343104F0B4313433A600F4A25
:104FF0001360F0BD6A000020600A0020440A00200F
:1050000066000020500A002067000020540A00209B
:1050100068000020580A0020690000205C0A002077
:1050200064000020650000204C0A0020480A00208F
:1050300010B500224260C2604274044A044C04600D
:10504000002908BF1146816010BD00BF640A00201E
:10505000A4F500002DE9FF474FF0000A9DF83070DD
:10506000BDF834908DF80C1005461E468DF80D20C5
:10507000D046BA453BD2A7EB0A0295F91030202A58
:10508000A8BF20220133D4B207D095F9100006F052
:10509000EFFD10B906F054FBF7E7CDE90088E868AA
:1050A0000123022203A900F0C2FA18B9002004B0BB
:1050B000BDE8F087484606F02DFB95F91030013326
:1050C00007D095F9100006F0D3FD10B906F038FBB3
:1050D000F7E7E8680123224606EB0A0100F0F4FA3C
:1050E0000028E3D00AEB04025FFA82FAC1E701204C
:1050F000DDE71FB5437C552B1AD10239C9B203290C
:105100001AD8073102234FF4FA72CDE9003203AB0B
:10511000CAB20921FFF79EFF9DF80C309DF80D40A3
:10512000012044EA032406F011FB204604B010BD20
:105130007C33DBB2052BE3E70024F6E707B50B462B
:105140004FF47A71CDE9002110221146FFF782FF5A
:1051500003B05DF804FB1FB50193012300930DF12B
:105160000F03FFF777FF9DF80F0005B05DF804FB14
:105170004FF4FA7304221021FFF7EDBF30B51D463E
:1051800090F9103085B0013304468DF80C108DF87D
:105190000D2007D094F9100006F06AFD10B906F052
:1051A000CFFAF7E70223019303AB00939DF8202089
:1051B000E0680123294600F03AFA05B030BD30B569
:1051C000054685B06C7C552C104618D10439C9B2FF
:1051D000032912D849B2102BCCB214D103128DF886
:1051E0000D3003238DF80E000093012203AB08213C
:1051F00028468DF80C40FFF7C1FF05B030BD7C3468
:10520000E4B2052CE5E74FF6FF7300930023FF227D
:10521000194606F081F9E1E71FB5437C552B13D100
:105220000439C9B2032916D849B213128DF80D30CA
:1052300003238DF80C108DF80E200093022203AB8F
:105240000821FFF79BFF06E07C33DBB2052B02D879
:1052500049B20029E9DA05B05DF804FB30B5012553
:1052600005FA02F404F00F0485B043EA440303F0A6
:105270001F038DF80D3002238DF80C1000932A4681
:1052800003AB1021FFF77AFF05B030BD1FB58DF8D5
:105290000F30012300930DF10F03FFF76FFF05B0EF
:1052A0005DF804FBFF237F220021FFF7EFBF2DE90C
:1052B000F04304461D46531C85B00F461046227429
:1052C00002D0002106F066FCE06808B106F072FA30
:1052D000102006F06DFA39460646A26800F07CF907
:1052E0000A27E660E068012100F092F9064688B9D5
:1052F0000A2006F02BFA013FF4D10025284605B01C
:10530000BDE8F0830A2006F021FA013D07D1F4E759
:10531000002525E045B12046FFF7C4FF0A25E068D7
:1053200000F061F90028EDD00A274FF000084FF097
:10533000FA0901220DF10F03CDF80490009200212B
:1053400020468DF80F80FFF785FE9DF80F30552B16
:1053500004D003F17C02D2B2052AD9D86374354651
:105360000A2006F0F3F9002DC8D1013FE1D1C4E7CE
:10537000012302221021FFF789BF08B505220B4641
:105380000221FFF783FF012006F0E0F9012008BDAC
:1053900010B500238AB00139DCB20133CA5C2AB1EE
:1053A0000DF1280C644404F8202CF5E7009402ABBE
:1053B00005220221FFF7E2FE20460AB010BD0000E0
:1053C000F8B504460F4606991D461646FFF730FE0F
:1053D0000020054B2075E076E06160622360E78283
:1053E000A67625852046F8BDCCF5000010B504460C
:1053F000C06908B107F08AF9204610BD30B50446EF
:10540000C06987B00D4608B107F080F994F82320F1
:1054100094F820309A420CBF0322042212FB05F2BA
:1054200092B222831046039207F068F9E06190B1CE
:10543000039A002107F09AF9E582238B5BBAADF855
:10544000143002230093032205AB0E212046FFF700
:1054500095FE07B030BD2083E082EEE770B5C1F362
:10546000811390F8235080F82330C1F3011390F892
:10547000206080F82030C1F38103FF2980F82130BB
:1054800001F0030380F8223004468CBF002301237F
:10549000C37402220E21FFF7F9FEE36993B194F879
:1054A000233094F82020A91B4D42A3EB02004D416C
:1054B000434243419D4205D0E18A2046BDE8704009
:1054C000FFF79CBF70BDC36913B5044683B106F0F6
:1054D000F5F8636AC01AB0F5967FF8D300230093FD
:1054E00005220E212046FFF749FE06F0E7F860622C
:1054F00002B010BD38B505460C460B4601220E2100
:10550000FFF7C4FEAC7638BD38B501230446FFF77B
:10551000CEFE054658B1218D2046FFF79FFFE18A58
:105520002046FFF76BFFA17E2046FFF7E3FF2846EA
:1055300038BDF0B5C38A8B4285B004463CD9C37EE2
:10554000C2F30747C2F30726D5B23BB15F435E43C0
:105550005D43C7F30727C6F307262D0A94F823C037
:1055600094F820E0E069E64528D101EB41031844B6
:1055700094F82030C75494F82130C65494F822305F
:10558000C55494F8202094F8235095420CBF03256D
:10559000042515FB01F149BA2A46ADF80810023579
:1055A00001460DF10A0007F0B9F8009502AB04229C
:1055B0000E212046FFF7E2FD05B0F0BD00EB8100B3
:1055C000120E1BB9D3B200F80C30D1E75343C3F32A
:1055D0000723F8E7C1767047426000220272FA2280
:1055E0000170C2607047037A10B5044653B1217848
:1055F000606800F0FDF8606800F0A8F9B0FA80F08B
:10560000400910BD012100F003F80028EFD1F8E7B0
:1056100038B5044640680D4600F0CAF801202072F3
:1056200025B12046BDE83840FFF7DDBF38BD2DE984
:10563000F843DDE908961F46C368154632449A428E
:105640000446884602D90020BDE8F8830178406806
:1056500000F0CEF87EB9606803682A465B68414670
:1056600098478542EFD16068394600F03AF9B0FAC0
:1056700080F04009E8E7B9F1000FECD060680368FA
:1056800032465B6849469847B042DCD1E3E72DE9F2
:10569000F041154604460F46D2B20178406800F04A
:1056A000BFF885420BD10026B54206F1010809D9A1
:1056B000606803685B699847B8554646F4E7002080
:1056C000BDE8F0810120FBE72DE9F8430746884655
:1056D000164699460025B54212D2FA68741B9442C8
:1056E00028BF1446331BAB4294BF4B4600232246CF
:1056F00008EB05013846FFF7CAFF10B12544EAE779
:105700000120BDE8F883F8B505460E46174600248B
:10571000BC4207D02B68315D1B682846984708B10A
:105720000134F5E72046F8BD7047D0F81C21D0F8C9
:1057300018319A421DBFD0F81C31C018007E4FF0BE
:10574000FF307047D0F81831D0F81C01181A48BF44
:1057500000F58070704700002DE9F04100251E46DD
:105760004FF47A730446C0E90153104B40F8183BDC
:105770008846174629464FF4807206F0F7FFC4F8B2
:1057800018514FF48072C4F81C51294604F59070EA
:1057900006F0ECFFC4F82052C4F81080C4F824527C
:1057A00027756675A5752046BDE8F081F4F5000003
:1057B00070B504460C4900690C4E05F0E9FB206900
:1057C00005F0D6F9207D182505FB006393F9081034
:1057D00006F066FA607D05FB006595F90810BDE8E6
:1057E000704006F05DBA00BFA0860100A0F800007E
:1057F0000023C0F82032C0F82432012380F8281298
:1058000083757047D0F80031D0F804210133DBB242
:105810009A421EBFD0F800218154C0F80031704771
:105820002DE9F0411E4604461546002382B3C0F818
:1058300018310122C0F81C31006905F0CCF928B3F9
:10584000206905F04EFA04F1180801464046FFF7BA
:10585000D9FF0127BD4220690ED005F0A3F902212E
:10586000206905F0A6F9206905F03BFA014640469B
:10587000FFF7C8FF0137EDE705F08DF91EB120698C
:10588000032105F096F9E8B2BDE8F0810546FAE794
:105890001046F9E708B5837D6BB1D0F82032D0F817
:1058A00024220133DBB2934205D000F59070FFF75C
:1058B000A9FF012008BD0020FCE7D0F80421D0F8A2
:1058C00000319A421FBFD0F80431C25CD0F80431D5
:1058D00001331DBFDBB2C0F8043110464FF0FF307A
:1058E0007047F8B5002204460D46827590F82812DC
:1058F000006905F070F9D0B104F59077D4F8200272
:10590000D4F82462861B48BF06F58076AEB13846CF
:105910002669FFF7D2FFC1B2304605F0A2F9002890
:10592000ECD12069032105F044F9032004E020694B
:10593000032105F03EF90220F8BD2DB120690321B5
:1059400005F037F93046F7E72846F5E70121FFF77C
:10595000C8BF08B51830FFF7B0FF08BD70B50446E2
:10596000006905F09DF998B1206905F0A6F980B1AC
:10597000206905F017F92069032105F01AF9D4F818
:105980003052002D33D10023C4F81831C4F81C3133
:1059900070BD206905F09BF940B1206905F092F9CE
:1059A00020B1206905F098F90028E1D0206905F0C0
:1059B0008EF910BB206905F07BF90028E8D020693A
:1059C00005F08AF9002834D0D4F82032D4F8242203
:1059D0009B1A48BF03F580734BB304F59070FFF733
:1059E0006CFFC1B2206905F04DF9A075D0E72368BE
:1059F00020461B699847A847C5E7206905F0D2F8FB
:105A00002069032105F0D5F8206905F065F9002823
:105A1000BED00023C4F82032C4F824320123A37579
:105A2000D4F82C32002BB3D0BDE870401847FF21CA
:105A3000D8E7D4F81831D4F81C2120690133DBB23F
:105A4000934207D105F0A7F820690321BDE8704013
:105A500005F0AFB805F045F9014604F11800FFF76D
:105A6000D1FE206905F09EF8EEE700000148FFF73F
:105A700075BF00BF640A0020FFF7F8BFFFF7F6BF4D
:105A8000FFF7F4BF0249034816231522FFF764BE4F
:105A900074210020640A00200146014800F06ABA1F
:105AA000B40C002000214FF0FF3003F03BBB00009E
:105AB00038B5054B1D780024E0B2854203D900F0CB
:105AC000CFFD0134F8E738BDB00C00202DE9F047D8
:105AD000074692B098461546002A00F090804B4B3E
:105AE00093F81C6193F81D1193F81EA1B21C83F862
:105AF0001C214C1C8A1C83F81D2164F07F040AF1D0
:105B0000010241F08009E4B283F81E214222002103
:105B100001A806F02BFE002D6DD0B8F1410F73D90E
:105B200040F20220ADF8080040F20940ADF80C0048
:105B300040F20120ADF8100024208DF81600344802
:105B40000690731C0120DBB28DF806608DF80E60A4
:105B50008DF81C008DF826602E48397D8DF81E309A
:105B6000032640F6083208908DF8273040F2246072
:105B70008DF82B608DF8313008260A230427ADF804
:105B800004208DF8141002220521ADF824008DF8B0
:105B90002C6040F207508DF8343040F60116402357
:105BA0008DF807208DF812208DF81510ADF828001B
:105BB0008DF83320ADF838008DF83B208DF81F703C
:105BC0008DF82A90ADF82E608DF830708DF83AA0DF
:105BD0008DF83C3007238DF83F308DF8401044F2AB
:105BE000020342220DEB070128468DF84140ADF833
:105BF000423006F093FD422012B0BDE8F087924695
:105C000014469146164681E70020F5E7B40C0020C3
:105C10002001052424020605A0F11000FFF756BF5D
:105C200007B503688DF807105B6801220DF10701C5
:105C3000984703B05DF804FB10B5407DFF2807D0FE
:105C400000F0DEFC044608B905F07AFD204610BDE0
:105C50000020FCE707B5407DFF2804D14FF0FF305E
:105C600003B05DF804FB0DF1070100F0EFFC002824
:105C7000F4D09DF80700F3E707B5407DFF280AD070
:105C800001220DF1070100F0C7FC20B19DF80700CB
:105C900003B05DF804FB4FF0FF30F9E7407DFF28CB
:105CA00001D000F0DDBC7047407DFF2801D000F03E
:105CB0003DBD00207047F8B5437DFF2B06460F46DB
:105CC000144612D015465DB1707D00F075FC38B1F8
:105CD0002A463946707D00F009FD2D1A074401D18E
:105CE000601BF8BD05F02CFDEDE70020F9E7000092
:105CF00000214FF47A72C0E90112054A02F108014D
:105D0000303202614FF47F4201608282704700BFEF
:105D100020F6000010B5437DFF2B11D1094A1378FE
:105D200073B900F110040121117043750649204632
:105D300000F0BCF921460548BDE8104000F0FCB871
:105D400010BD00BFB00C002010F60000B40C002005
:105D500007B549B940B9694600F044FC009BB3F56A
:105D6000966F01D100F08CFB03B05DF804FB0000DE
:105D70000148FFF7BDBF00BF980C0020F0B50546F5
:105D8000002004462B5D2E19002B68D003F1400241
:105D9000D2B2012A3DD9F42B3BD81A061BD40122DA
:105DA000A3F55846B6F5006F33D3B3F5803F1444DE
:105DB0004FD31E2853DCA3F5803342009E0A0A44C9
:105DC000C3F30903A6F52056A3F5105321F810607C
:105DD00002305380D6E703F0E002C02A1BD103F063
:105DE0001F03022206F1010C16441CF8017B07F088
:105DF000C00EBEF1800F0CD107F03F07664547EAA1
:105E00008313F2D1022A16D1A3F18006B6F5F06F02
:105E1000C6D30134B6E703F0F002E02A03D103F061
:105E20000F030322DEE703F0F802F02AF1D103F0BA
:105E300007030422D6E7032A04D1A3F50066B6F5CA
:105E4000784FE5E7A3F58032B2F5801FE1D2042256
:105E5000A6E7202803D021F81030013092E7F0BDEA
:105E6000C0F824117047C0F828117047C0F82C11F1
:105E70007047034690F850010B2808D839B1421CEE
:105E800083F8502100F1480243F8221070470020A7
:105E900070470000F0B5234B89B003AA044603F114
:105EA0001007154618685968164603C60833BB42E2
:105EB0003246F7D11B8833800FCD26460FC61A4ACB
:105EC0002B681068516833806B4603C36B4603CB65
:105ED000137A84F82030154BC4F818314FF48073CE
:105EE000A4F81C3104F118050123A061E16184F8D4
:105EF0001E3165612022002104F5987006F036FC01
:105F000040F20943C4F82031094BC4F82431094B4D
:105F1000C4F828310023C4F82C31042384F850310C
:105F200009B0F0BD81F6000093F600000900000101
:105F300054F600005DF6000038B504460846B4F893
:105F40001821B4F81A31616905689B1A2D680A4452
:105F50009BB294F81C11A84758B1B4F81831626983
:105F600003449BB2A4F81831538094F81C31137188
:105F7000012038BD70B504460D460126FFF78AFFA3
:105F800040F2EF23A3804FF4E1310448A671FFF7FC
:105F9000C1FE284600F026FA304670BD980C00205D
:105FA0002DE9F041D0F82C5188B08C1C002D3BD14C
:105FB000684600F069FA224603462C46E1B28B425D
:105FC00002F104022BD91B4D04AF05F110083E4627
:105FD000C64628686968BC46ACE8030008354545F4
:105FE0006746F6D11DF80470124D07F00F0108A89E
:105FF000014411F8101C22F8021C28686968B44694
:10600000ACE80300083575456646F6D108A901EBF2
:106010001717013417F8101C22F8041CCEE758009B
:10602000C0B208B0BDE8F08121462846FFF7A6FEC1
:10603000F6E700BF70F6000010B5044679B10329F9
:106040001BD090F850318B421CD901F1480300F568
:10605000AA7150F82300FFF791FEC0B204E0D0F817
:106060002031A0F8543101200130400040F440704C
:10607000A4F8520104F5A97010BD00F5A971FFF74D
:106080008FFFF1E70020F7E700487047B40C0020CD
:10609000014B5869704700BFB40C00200A46014606
:1060A0000148FFF7C9BF00BFB40C002010B504467B
:1060B0000248FFF7DEFE207110BD00BFB40C0020C7
:1060C00037B50F4C2368CBB1186891B10D4B0093D5
:1060D000002502ABADF8045013E9060004F0F0FA15
:1060E0002368294693F9040003B0BDE8304005F069
:1060F00095BD04F003FB23680121F3E703B030BD35
:10610000480E0020001BB7002DE9F0411F460C4B44
:1061100018680D46164680B1D0F800800024BC42B5
:106120000AD03DB1295D404604F0F8FA06B1305579
:106130000134F4E72946F6E70120BDE8F08100BF0D
:10614000480E0020154B1B6833B3154A93F90530F0
:10615000182000FB032393F916300C339AB259B17F
:10616000002B19DB012102F01F0201FA02F25B0988
:106170000C4941F823207047002B0DDB01215B09FE
:1061800002F01F0201FA02F22033064941F82320EF
:10619000BFF34F8FBFF36F8F704700BF480E0020D3
:1061A000A0F8000000E100E0024B53F8200000B12D
:1061B000C06870474C0E002030B40546084C54F8B7
:1061C0002540084611461A46BDF8083024B1246916
:1061D00014B1A44630BC6047002030BC704700BFFB
:1061E0004C0E002030B40546074C54F825400846B4
:1061F00011461A46BDF8083024B1646914B1A446AA
:1062000030BC604730BC70474C0E0020024B186811
:1062100008B190F860007047540E00202DE9F84353
:106220001F461F4B0446186889469046002834D004
:106230002C2303FB04001B4B066A456A846A002E6C
:1062400008BF1E46184B002D08BF1D46174B304691
:10625000002C08BF1C4607F01FF9082802463146EB
:1062600028BF0822484606F059FA284607F014F9D4
:1062700010280246294628BF1022404606F04EFA52
:10628000204607F009F9042802462146384628BF6F
:106290000422BDE8F84306F041BABDE8F88300BF28
:1062A000540E002054F600009CF60000A9F60000F1
:1062B00070B50D4E34680546A4B12C2303FB004491
:1062C000636913B1984784F8320032682C2303FBCA
:1062D000052393F832402CB923463A22022128465E
:1062E00001F020F8204670BD540E0020054B1B68BD
:1062F00010B533B12C2404FB0030C36A0B60038E4D
:10630000138010BD540E002008B520220023052163
:1063100001F008F84FF0FF3008BD000030B404462B
:10632000084611461A46064B1B6833B12C2505FB5F
:106330000434E3690BB130BC1847012030BC70470E
:10634000540E002030B4044608461946074B029A02
:106350001B6833B12C2505FB0434A3680BB130BC9A
:1063600018474FF0FF3030BC704700BF540E00207C
:1063700030B4044608461946074B029A1B6833B1ED
:106380002C2505FB0434E3680BB130BC18474FF0F3
:10639000FF3030BC704700BF540E0020044B1B6818
:1063A0002BB12C2202FB0030036903B11847704760
:1063B000540E0020054B1B682BB12C2202FB003031
:1063C000836903B118470120704700BF540E0020B5
:1063D000002003F0B7BEFFF7FBBFFFF7F9BFFFF7E1
:1063E000F7BF0000224B07B59A6942F001029A619B
:1063F0001A6942F480621A611E4B93F8582042F0E9
:10640000010283F8582093F83C2002F0F00283F850
:106410003C2093F83C2042F0070283F83C2093F89C
:10642000592042F0010283F8592093F83C2002F0F1
:106430000F0283F83C2093F83C2042F0700283F86E
:106440003C200D4B4122C3F8A8200C4B002083F8C0
:10645000500301A983F8510383F8520383F85303CF
:106460000123ADF8043002F0D7FB03B05DF804FB64
:106470000008004000800041001C004000E100E0F6
:10648000FA2004F069BA000030B50A4B05460FCB7C
:1064900085B06C4684E80F0005F1100254F8043B07
:1064A0001B681BBA45F8043B9542F7D1102005B094
:1064B00030BD00BFB0F6000000487047C0F60000D5
:1064C00070B51A4E33680D4611466BB3012D01D0DD
:1064D000012070BD1478C4F34114012C13D0022C98
:1064E00022D15278012A07D0022AF1D18B88072BBA
:1064F0001AD10F4A138902E09A69AAB11378BDE84C
:10650000704003F0E3B95278222AE1D14A88003A78
:1065100018BF01225A7503F0C1F93268D369002B04
:10652000D6D0507D9847D3E70020D2E7580E002000
:106530006B0000202DE9F047074602F05DFB68B3D1
:1065400002F062FB064648BB164D4FF40A747C43CA
:1065500005EB040999F8033003B304F11008A844CB
:10656000404602F0F9F93F2818D999F80310285D40
:1065700002F040FD90B1404602F0EEF93F2899F854
:10658000031008D9084A304602EBC7124023BDE881
:10659000F04702F04BBD285D02F03AFD0020BDE857
:1065A000F08700BFDC0E00205C0E002070477047B3
:1065B000704770477047704710B5044602F01CFBE7
:1065C00008B9002010BD02F01FFB0028F9D10448D3
:1065D0004FF40A7303FB0404607900F00100F1E753
:1065E000DC0E0020054B4FF40A7202FB0033986862
:1065F00008609A899B7B8B718A807047DC0E002033
:1066000008B5044B4FF40A7202FB0030103002F060
:106610007AF908BDDC0E002038B50B4B04464FF468
:106620000A7000FB04304FF6FE754FF6FF73AA4266
:1066300088BF1A4692B2103002F0B2F905462046E1
:10664000FFF778FF284638BDDC0E0020034B4FF4DF
:106650000A7202FB0030103002F0B6B9DC0E0020E6
:106660002DE9F843044602F0C7FA10B90020BDE84E
:10667000F88302F0C9FA0028F8D14FF40A75184FD0
:10668000654305F11C09B944484602F03CF900286D
:10669000ECD007EB0508785D98F8021002F0AAFC30
:1066A0000028E3D040220F4E02EBC41426443146AA
:1066B000484602F075F9044698F80210785D54B126
:1066C0002346324602F0B2FC38B9074B1B68DB07A1
:1066D000CCD500BECBE702F09BFC2046C7E700BF4D
:1066E000DC0E00205C0E0020F0ED00E00E4B70B5DB
:1066F0004FF40A7404FB003405464FF6FF734FF65F
:10670000FE70824288BF1A461C3492B2204602F0C4
:1067100085F90646204602F0F6F83F2802D92846B9
:10672000FFF79EFF304670BDDC0E002008B5044B1D
:106730004FF40A7202FB00301C3002F00DF908BD64
:10674000DC0E002013B5154C4FF40A7200212046D0
:1067500006F00CF8FF23A3714FF4E133A360082285
:106760000023A381A273009304F1280101234FF4B5
:10677000807204F1100002F0B3F8094B1B78C3F3E8
:10678000800300934FF48072012304F5947104F1A7
:106790001C0002F0A5F802B010BD00BFDC0E002006
:1067A0001D0100200120704710B50C480C4C00233F
:1067B000036083802378DA0702D4103002F0A2F954
:1067C00023789B0702D4074802F09CF921780548FA
:1067D000BDE81040C1F3800102F099B9DC0E002041
:1067E0001D010020F80E0020F7B54B79022B07465B
:1067F00003D00025284603B0F0BD8B79022BF8D1D9
:10680000204EB37883BB8B78307073700C78092579
:106810000C4403E023781D44ADB21C446378242B60
:106820001BD19542F6D96378042B12D163790A2BD8
:106830000FD1154B267801930133009302231A469A
:10684000A119384602F0A2FB70B10E3516FA85F593
:10685000ADB20020FFF76EFECCE7052BE3D1214659
:10686000384602F071FB28B9084B1B68DB07C0D51E
:1068700000BEBEE7A378337123781D44ADB21C443B
:10688000D1E700BFDC0E0020DE0E0020F0ED00E0BE
:106890000B461146127802F06002202A70B505D12D
:1068A000274A8C885578A542144639D0002006E046
:1068B000012B05D1234A072303F008F8012070BDFE
:1068C000032BFBD11F490020FFF774FEF6E7012BD5
:1068D000F4D1EFE7012B02D102F0E0FFEEE7032B4A
:1068E000ECD14B88637103F00105C3F34006164BEE
:1068F0001648197811F0040118BF85F0010102F063
:1069000006F9324629460020FFF722FAD6E7012B86
:10691000E2D0032BD2D149880020FFF74CFECDE70F
:106920004A78203A032AC1D801A555F822F000BFC1
:10693000B1680000CF680000D56800000F69000052
:10694000DC0E0020E40E00201D010020F80E0020C7
:106950002DE9F3471D46374BDA788A4280460E46CA
:106960001C462ED09A788A4202D01B798B4258D18D
:10697000A378B3424DD10020FFF71AFE0020FFF7A5
:106980006FFE002845D12C4801F0BDFF002840D102
:10699000002D3ED015F03F033BD1A1780193404636
:1069A00002F028FB019B002833D0A1781A4640460C
:1069B00002F03CFB68BB214B1B68DA0736D500BEF2
:1069C00035E01F4F03F11000AAB2394602F026F855
:1069D000A379FF2B05D007EB050904F1100A4F45F9
:1069E00009D1184801F09FFF08B9FFF7DFFD00202B
:1069F000FFF7A0FDBCE717F8013BA2799A42EED160
:106A0000504601F090FF0028E9D1A179FFF7CFFDB2
:106A1000E5E72379B34202D10020FFF7CAFD012048
:106A200005E0064B1B68DB0700D500BE002002B066
:106A3000BDE8F087DC0E0020F80E0020F0ED00E04D
:106A40005C0E0020EC0E002070470120704770475C
:106A5000704701207047000002481822002105F00D
:106A600085BE00BF841200200020FFF7F5BF0000A4
:106A70002DE9F34113464A79032A07460E4604D00E
:106A80000025284602B0BDE8F0810A79C2EBC205B4
:106A90001235ADB29D420FD8214C94F80180B8F167
:106AA000000F04D0637B3BB90C344FF001083378FE
:106AB000F1184878212805D01A4B1B68DA07DFD572
:106AC00000BEDDE7A160F05C631C0193A31C009392
:106AD00001440323384602F059FA0028ECD0B37978
:106AE000A178012B04BFF379E3700123A371B3787C
:106AF0002370A368B3F80730A3800029C1D00A4AE5
:106B0000C02303FB082280324023384602F08EFA6D
:106B10000028B6D1034B1B68DB07B2D500BEB0E737
:106B200084120020F0ED00E00411002013782DE91C
:106B3000F34103F01F05012D80460C46164601D097
:106B4000002432E0734F91883A78C9B28A421CD04F
:106B50003A7B8A42F4D113F060032AD1012C78D118
:106B60007378062BECD173881B0A212B0FD10C22D2
:106B700002FB0575AA68002AE2D013783146404628
:106B800002B0BDE8F04102F0A1BE0025E3E7222BF0
:106B9000D6D12846FFF708FB0C2303FB05750246F8
:106BA000AB883146404602F091FE204602B0BDE877
:106BB000F081202BC4D17378013B0A2BC0D801A2ED
:106BC00052F823F0F16B0000D96C0000E96C000072
:106BD000416B0000416B0000416B0000416B000005
:106BE000416B0000576C0000B36C0000F96C0000B2
:106BF000012C2ED1F3887188DFF820C1402B05EBE2
:106C000045074FEA1122184628BF402011F0FF0126
:106C10004FEA871E0CEB871713D0012B11D90138CF
:106C20000CF80E107B1C80B200902846FFF7C4FAC7
:106C30000444A3B243B9384A1268D30780D500BED2
:106C40007EE73B460024EFE73A463146404602F0F5
:106C50003DFE0124A9E7012C09D1F388402B3FF622
:106C60006FAF2E4905EB450501EB851299E7032C23
:106C7000EFD17188F688294C402E05EB45034FEA89
:106C80001122304628BF402011F0FF014FEA831740
:106C900004EB831308D0012E06D9E45D8C4202BFB9
:106CA00000F1FF30013380B200902846FFF79AFAD6
:106CB000CFE7012CCDD171880C2202FB0577090AA0
:106CC000F9712846FFF7C1FE00283FF439AF31467D
:106CD000404602F0E3FDBCE7012CBAD10C2202FBD6
:106CE0000572234607325CE7012CB2D10C2202FB6D
:106CF00005722346063254E7012CE8D0032CA8D1B4
:106D000071880C2202FB0577C9B2B9712846FFF7DA
:106D10009BFE9EE784120020F0ED00E004110020AD
:106D2000B3B5294C0746A07888429446627810D0C3
:106D30008A420ED0A07B627B88421ED091421CD03A
:106D4000224B1B68DA0702D4002002B0B0BD00BE9F
:106D5000FAE700206278450005448A429BB21C494C
:106D60004FEA851511D140352944BCF1000F07D1F8
:106D70001A46FFF76CFE0120E7E70C340120E9E733
:106D80000A460121FFF764FEF5E780350D44BCF1AA
:106D9000000F13D1009302222B466146FFF722FA1F
:106DA000A17840232A46384602F040F90028CCD189
:106DB000064B1B68DB07C7D500BEC6E72A46022183
:106DC000FFF746FEECE700BF84120020F0ED00E084
:106DD000041100202DE9F0414FF494774743134DFF
:106DE00007F110062E440446304601F0B5FD3F2859
:106DF0001AD93D440020A97802F0FCF8A0B1304631
:106E000001F0AAFD3F28A97809D9094A402303EBDC
:106E1000C41422440020BDE8F04102F007B9BDE8E7
:106E2000F041002002F0F4B8BDE8F0811C1300200E
:106E30009C120020F8B54FF494774743164D07F1A4
:106E40001C042C440646204601F05DFD08B90020D4
:106E5000F8BD3D440020697802F0CCF80028F6D057
:106E60000E4901EBC61631462046402201F098FD3E
:106E70006978044658B103463246002002F0D6F83D
:106E800038B9074B1B68DB07E1D500BEE0E702F02D
:106E9000BFF82046DCE700BF1C1300209C12002036
:106EA000F0ED00E07047000037B50E4C00254FF4C0
:106EB00094720021204605F059FC04F12801009548
:106EC0000123802204F1100001F00AFD0095012346
:106ED000802204F1A80104F11C0001F001FD03B0BF
:106EE00030BD00BF1C1300200120704710B5084CB6
:106EF00010220021204605F039FC04F1100001F0B9
:106F000001FE04F11C00BDE8104001F0FBBD00BF14
:106F10001C1300202DE9F0474B79012B82460C46CB
:106F2000914617D18B79012B14D1CB7993B90A787B
:106F3000134614446278242A01D14B4506D962785D
:106F4000042A09D000252846BDE8F087227813449A
:106F50009BB2EEE70023F2E76279012AF2D1A2792F
:106F6000032AEFD1E579002DECD11E4A57789178AC
:106F70000F43904630D1A27888F8002026789D19DA
:106F8000ADB2264410E0B378DA0914BF88F80130B6
:106F900088F80230337801371D44ADB21E44FFB289
:106FA00033781D44ADB21E442379BB4203D8002080
:106FB000FFF710FFC7E74D45F9D87378052BEFD1E0
:106FC0003146504601F0C0FF0028DCD1064B1B685B
:106FD000DA07B7D500BEB5E7034B1B68DB07B1D5B1
:106FE00000BEB0E71C130020F0ED00E00020704769
:106FF00073B51E4D1C46AB788B4206461DD06B7890
:107000008B4228D10020FFF715FF10BB05F11C00B3
:1070100001F079FCE8B9E4B114F03F0319D16978C3
:107020000193304601F0E6FF019B044688B1697880
:107030001A46304601F0FAFF14E00D49A2B205F1FC
:10704000100001F0EBFC0020FFF72CFF0020FFF701
:10705000C1FE012406E0074B1C6814F0010401D0B6
:1070600000BE0024204602B070BD00BF1C130020EB
:10707000DC120020F0ED00E010B4124B02460224B6
:10708000996883F82C205A6B83F8384093F839407C
:10709000D87F8A1A9A6224B9052483F839402024BB
:1070A0005C8759B152B11A7B5DF8044BD20914BF09
:1070B00093F82E1093F82F1001F0F8BF5DF8044BF1
:1070C000704700BF4416002030B5184C011EE57F04
:1070D00085B00EDD8BB2164A94F82E10284601F0CA
:1070E000A5FF20B9134B1B68DA0700D500BE05B019
:1070F00030BD4B1C11D00029F9D194F82E308DF8F9
:107100000450072201A88DF805208DF8083003915E
:107110008DF8091001F0F2FDE9E7022384F8393017
:1071200001203A236387FFF7A7FFE0E7441600201A
:1071300044140020F0ED00E037B5164CE28AA36855
:1071400052BA92B212B1B3FBF2F292B2606BD4F8BF
:1071500011101B1AB3F5007F28BF4FF400730125EF
:1071600009BA84F83C500093B0FBF2F50A4B02FBDD
:1071700015022944607BFFF7E5F8831C07D0002344
:1071800084F83C3003B0BDE83040FFF79DBF03B04A
:1071900030BD00BF44160020441400200548064AB4
:1071A00090F82F10002380F83830C07F1F2301F0A3
:1071B0003DBF00BF441600204414002070B40B4CA7
:1071C0000B4E626BA3689B1AA362032384F83830CA
:1071D00004F120030FCB354607C52B7094F82E1011
:1071E000E07F32460D2370BC01F020BF4416002022
:1071F0004414002038B5104CE57F94F82E10284632
:1072000002F0ECFA08B1012038BDA268636B9A4223
:1072100008D9237BDB0905D094F82E10284601F00D
:1072200045FFF0E7FFF7CAFF0028ECD1034B1B68CE
:10723000DB07E9D500BEE7E744160020F0ED00E0EB
:107240000020704770477047012070471220704738
:1072500010B5124C607BFFF7ADF848B9072384F8EE
:107260003930272363870120BDE81040FFF704BFB2
:10727000626BA36894F82F10E07F9B1AB3F5007F30
:1072800028BF4FF40073064A9BB201F0CFFE20B92D
:10729000044B1B68DB0700D500BE10BD4416002060
:1072A00044140020F0ED00E030B5002985B00CDA80
:1072B000013108D1194B022283F839203A225A872A
:1072C0000120FFF7D9FE05B030BD8142134D18D221
:1072D000441A21B112482246014405F02DFAEA7FF2
:1072E00095F82F308DF804200021072201A88DF891
:1072F00005208DF8083003948DF8091001F0FEFC8C
:10730000E1E76A6B2B6B10449842686303D3022356
:1073100085F83830D7E7FFF79BFFD4E74416002005
:1073200044140020044880F8391080F83A2080F88E
:107330003B300120704700BF441600200248402225
:10734000002105F013BA00BF441600200248402275
:10735000002105F00BBA00BF4416002013B54B798D
:10736000082B02D0002002B010BD8B79062BF9D17A
:10737000CB79502BF6D1162A05D8134B1B68D907A9
:10738000F0D500BEEEE7114B8A7883F82D20D87730
:107390000C7803F12E022F33009302230192214433
:1073A0001A4601F0F3FD28B9074B1B68DA07D9D557
:1073B00000BED8E7FFF7F2FE20B9034B1B68DB07DE
:1073C00000D500BE1720CEE7F0ED00E04416002007
:1073D00001297FB50646154614D1137803F07F02C4
:1073E000022A36D16C78012C33D16A88002A30D138
:1073F0002D49AB8891F83820042ADBB204D1194614
:1074000001F054FE01200EE091F82E409C420CD178
:10741000022AF7D1FFF7D2FE0028F3D1234B1B68D5
:10742000DB073FD500BE04B070BD91F82F10994224
:10743000E8D1002AE6D1019101F02AFE0199002845
:10744000E0D1304602F0CAF90028DBD1FFF7A6FEF2
:10745000E2E703F06003202B24D16B78FE2B0ED0E3
:10746000FF2B1FD16B88EBB9EB88DBB90E4A29469D
:1074700093633046C2E90C3302F010FAC2E76B881E
:1074800083B9EC88012C0DD1FEF7C0FE50B1431E2C
:107490008DF80F300DF10F0223462946304602F0D9
:1074A00015FAAFE70020BEE744160020F0ED00E03B
:1074B0002DE9F043A94C94F83890B9F1010F8BB045
:1074C00006468C461D4600F09081B9F1030F00F08E
:1074D000E181B9F1000F44D194F82F308B4203D0F1
:1074E00001200BB0BDE8F0831F2D05D19C4F9D4BB3
:1074F0003A689A42B8460ED094F82E1004233046CB
:1075000084F8383001F0D2FD94F82F10304601F0A5
:10751000CDFD0020E5E70FCF25460FC597E80F000A
:1075200007C525F8023B1B0C2B708F4B2362636849
:10753000E27B84F82C90C4E90939012384F83830BF
:1075400002F0FD01A3682829C4E90C3928D1E18A99
:1075500049BA89B273B9002900F043810220FFF7CC
:107560008BFD94F83830022BBAD1FFF743FE002888
:10757000B6D126E0282A0AD1207BC009EED0B1B1CD
:107580008B42EBD3282A08D1FFF7D6FDE9E72A2A58
:10759000F5D1207BC009F2D0E0E7FFF759FEE0E724
:1075A000ABB1217BC90912D1B3F5007F01D901200C
:1075B000D5E76B4A9BB26146304601F037FD0028A3
:1075C000CFD16A4B1B68DB07A3D500BE89E7252A0C
:1075D000657B08D8192A14D8032A00F0CF80122A14
:1075E00000F08F8062B394F83930002BDFD1238E06
:1075F0005B4A5F49607BFEF787FE031E80F2EA80EC
:10760000D5E71A3A0B2AEED801A353F822F000BFAF
:107610003F77000061760000E7750000E775000025
:1076200075760000E7750000E7750000E77500005B
:10763000E7750000BD760000E77500008176000068
:107640002846FEF735FE002840F0C78094F8393010
:10765000002BC8D1022384F839303A236387C2E76C
:10766000E17C2846C1F3400301F001020909FEF75D
:1076700055FEE8E7227DE17C2846FFF7E5FDE2E7DD
:1076800004AA05A92846FEF731FE059B002BDDD094
:10769000BDF81020002AD9D0013B1BBA12BAC8E9A4
:1076A00000320823A068002881D0834228BF034607
:1076B00023632B4A94F82E109BB27DE700230DF133
:1076C0000E0205AF04A92846C7E901330593FEF76A
:1076D0000DFE049A002AB9D0BDF80E30002BB5D0AB
:1076E00012BA5BBA082106920222ADF81E308DF85C
:1076F00017108DF81C2097E807000C2388E8070076
:10770000D0E724220021164805F030F8194BC8F8BC
:1077100000301F2388F8043011494FF400722846C6
:10772000FFF78EFD031E40F0D080134B2846A3F1D7
:107730001002A3F11801FEF771FD2423B2E72846D9
:10774000FEF738FE80F00103DBB2DB0543F00303F4
:107750000593C8F800300423A4E700BF44160020B6
:10776000441400205553424355534253F0ED00E07A
:10777000531600200080020264140020122200210F
:1077800005A804F0F3FF94F83910628FADF82020BB
:10779000F0238DF814304FF0000361F303038DF8EC
:1077A00016300A238DF81B3005AF0FCFDFF824C148
:1077B000ACE80F0061463B6821F810394FF40072C5
:1077C0002846FFF743FD002384F839306387031E02
:1077D000FFF609AF002B7FF465AFA368002B7FF4A1
:1077E000E6AE022384F83830BBE6B3F5007F06D955
:1077F000374B1B68DC077FF58CAE00BE89E6E37B68
:10780000626B282B05D1236B15449D426563E8D23A
:10781000BAE62A2B22D1E08A40BA80B218B1A36816
:10782000B3FBF0F080B2D4F81110B2FBF0F60123F4
:1078300084F83C3009BA009500FB16223144254BF0
:10784000607BFEF795FD0146881C3FF48AAE00235D
:10785000284684F83C30FFF727FD82E6237B154459
:10786000DB0965630BD1238E1A4A607B04F10F019B
:10787000FEF74AFD002802DA4846FFF7FDFBD4E98F
:107880000C329A42ADD2124B1B68DA077FF569AE13
:1078900000BE66E694F82E308B427FF462AE0D2D6A
:1078A0007FF45FAEE37B607B282B06D02A2B09D0C8
:1078B00004F10F01FFF7C7FC01E0FFF7C3FCFFF77E
:1078C0006DFC7CE6FEF76AFDF9E7BFF6EBAE8AE6F3
:1078D000F0ED00E0441400207047704710B90249F1
:1078E00002F0D8BD00207047081700207FB5124C69
:1078F000124EAC220021204604F038FF04F16C0344
:10790000402500930023CDE901561A4619460395F8
:1079100004F1580002F066FD04F1180300932E44B0
:107920000023CDE90156039501221946201D02F0DE
:1079300059FD04B070BD00BF04170020841600205C
:1079400010B5054C04F1580002F062FD201D02F054
:107950005FFD012010BD00BF0417002038B5074CA3
:107960002046002500F8605B01F0CCF804F10C0023
:1079700001F0C8F884F85950657138BD041700202B
:107980002DE9F84F4B79FF2B07468A4608D1354D34
:107990000C786B798E1895F8592013430C445AD003
:1079A0000020BDE8F88FA378DB091FD095F805B05B
:1079B000BBF1000F12D1484601F0A4F8A3786B7117
:1079C000A3882A79C3F30A03A3F500714B424B4104
:1079D00063F3410258462A71FFF780FF23781C4465
:1079E000B44221D3A4EB0A0080B2DAE795F859300B
:1079F000002BF3D1404601F085F8A37885F8593083
:107A0000A3881949C3F30A03A3F5007253425341F3
:107A100095F85820384663F3410285F8582002F063
:107A20007FFD0028DAD110E0237823449E42D9D389
:107A30006378042BD6D00B2BD4D0052BCED1214686
:107A4000384601F081FA0028ADD1084B1B68DB07EE
:107A5000A6D500BEA5E7A8468B7808F8603B05F1DF
:107A60000C09BDE7041700205C170020F0ED00E0D2
:107A700073B5194D1C4695F859308B42064605D012
:107A80006B798B4217D0002002B070BDB5F864301E
:107A9000A2B233B1E96D019205F1600000F0BEFFC2
:107AA000019A0E490020FFF717FF0D49304602F0FA
:107AB00037FD0120E8E7A1B20020FFF70EFF291DE6
:107AC000304602F0E7FC0028F3D12246291D30465B
:107AD00002F0A0FCEDE700BF041700208416002090
:107AE0005C170020C3883BB1027804490B2000FBDF
:107AF000021210681844704718467047B0170020EB
:107B0000884202D24378934200D1704703781844E8
:107B1000F6E7000038B50B4D1446884201D30846FD
:107B200038BD8378102B06D825FA03F3DB0702D57E
:107B3000C378A342F4D0037824221844FFF7E0FF6F
:107B4000EBE700BF5010010010B51446884201D386
:107B5000084610BD837803F0FD02052A01D0112BE1
:107B600002D1C378A342F4D0037824221844FFF74B
:107B7000C7FFEBE72DE9F0410C46FFF7B3FF18B163
:107B8000A278037B9A4207D94D4B1B68DB0700D5CF
:107B900000BE0020BDE8F0812AB9012B01D90120E7
:107BA000F8E70122A2706FF03F03A3766FF00303A2
:107BB000E3766FF064032377032300254FF0010879
:107BC000A377082384F808806572A572E57284F8AB
:107BD0000E80E5732574657484F81D8084F81F8019
:107BE00084F8208084F8218084F8225084F823309F
:107BF0000378B0F80D10194401441844FFF78AFFC8
:107C00008842064606D12E4B1B68DA07C1D500BE56
:107C10002846BFE78778062F06D0102F04D0042F00
:107C2000F6D184F80C806573E27833799A42ABD848
:107C30001AB9012BB3D80122E27030783044FFF733
:107C400083FF8842A0D0D4F812307BB9062F30D001
:107C5000102F2ED0042F07D1B0F80730B0F8052030
:107C60005A43737D5343DB08C4F81230626852B93B
:107C7000417E012993D8D0F81A2019B9D0F81E10E6
:107C800091428CD1626042F20F718A427FF67CAFE2
:107C9000013B42F21071B2FBF1F21344B3FBF2F379
:107CA0000233B3F5807F28BF4FF48073C4F81630D9
:107CB00075E7B0F80520B0F8073053431B01D2E751
:107CC000F0ED00E02DE9F8430546154F43692E69B4
:107CD0003878D5F818800644F61AB045444628BFCF
:107CE0003446A04209D90F4B1C6814F0010401D09E
:107CF00000BE00242046BDE8F883E968A4EB000933
:107D000019444A46384404F009FD6B69B0454B44B8
:107D10006B6122BF7B7843F002037B70EAE700BF10
:107D2000BC170020F0ED00E038B514461D4688422F
:107D300001D3084638BD8378A34202D1C378AB4251
:107D4000F8D0037804221844FFF7DAFEEFE78278D0
:107D5000884202D28378934200D070470378184457
:107D60008142F5D94378042BF2D00B2BF6D1EFE703
:107D70002DE9F0410F680E46898813463944BA78D8
:107D800080463846FFF7D0FF8142044602D80020E3
:107D9000BDE8F081037D012B05D9134B1B68DA0781
:107DA000F5D500BEF3E70379CBB1012BEFD1037812
:107DB000C5891D440544407A1844294605222044BB
:107DC000FFF79EFEA8420146E1D2404601F0BCF812
:107DD00028B9054B1B68DB07D9D500BED8E7E41BE3
:107DE000F4800120D4E700BFF0ED00E02DE9F84F6A
:107DF00092460B78564A0C460B2101FB0323804622
:107E00001E6823896BB13344DA7802F00302012A39
:107E100005D1002222726272997801F0EDFC63892B
:107E2000DBB96088A7880025304425736573A57386
:107E3000E57325746574A574E57425756575A57578
:107E4000E5753744827853463946FFF76DFF874220
:107E5000834610D80020BDE8F88F3344DA7802F06A
:107E60000302012ADDD14FF0000262819978404679
:107E700001F0C2FCD5E790F80490B9F1020F05D9E2
:107E8000344B1B68DA07E5D500BEE3E7831BE380CC
:107E9000BAF1000F0CD09BF8001000258B444D4523
:107EA0002AD3BAF1000F01D0022363770120D2E771
:107EB000637F012BEFD004F11E03514684F81DA00F
:107EC00084F818A084F819A084F81AA084F81BA0DC
:107ED0003022184604F04AFC01462046FFF74AFECD
:107EE0000028D8D1B6E79BF80130052B07D0042B2A
:107EF000C6D09BF800309B445F45F4D8C0E79BF8A0
:107F0000033003F00303BAF1000F13D0012B11D19A
:107F1000BBF80430A269C3F30A0393429AD35946CB
:107F2000404601F011F840B90A4B1B68DB0791D5B8
:107F300000BE90E7022BF2D08CE704EB4503ABEBDD
:107F400006021A819BF8003001359B44A7E700BF69
:107F5000B0170020F0ED00E07047002070470020CF
:107F600070470000044B0548002159601960C3F8B0
:107F700007104E2204F0FABBB0170020BC180020F6
:107F800001207047044B0548002159601960C3F86F
:107F900007104E2204F0EABBB0170020BC180020E6
:107FA0002DE9F04F2DED028B4B790E2B08EE100AC8
:107FB00085B00C46174605D0002005B0BDEC028BFD
:107FC000BDE8F08F8B79012BF6D1CB79012BF3D162
:107FD000314ED6F80080B8F1000F57D13160B28031
:107FE00031464246FFF7C4FE0028E5D0F2883368E8
:107FF000DFF8AC90134427443946204693F814B078
:10800000FFF7A5FE06F10803054601935FFA88FA1B
:10801000D34503D82C1BA0B2B480CEE7B9F8022018
:10802000A2BB019B89F8002003F8012B394601937C
:1080300028462B1B0392A9F80230029389F801A06D
:10804000FFF785FE039A029B89F81D20011B054658
:10805000A9F80410BAF1000F02D008F10108D5E721
:10806000BBF1010FF9D114FA83F014FA81F182788F
:108070005B46FFF759FE8142EFD118EE100A5246D7
:108080004946FFF7B3FE0028E7D195E7034B1B688D
:10809000DB0791D500BE8FE7B0170020F0ED00E0C0
:1080A000BC1800202DE9F0478846117801F01F0325
:1080B000012B8EB00746154648D1A74E93883268EB
:1080C0005FFA83FCB146002A00F0E28094786445B0
:1080D00040F0DE80C1F3411A11F0600F544603D026
:1080E000012C67D007230BE06B780A2B0AD00B2BEF
:1080F00024D09A4B186810F001004FF0070356D1B6
:10810000737223E0B8F1010F04D0002389F809301D
:1081100001240FE0EB88012B15D1F1880A44294690
:10812000D2788DF8082002AA01F0D0FB044650B1A5
:1081300086F809A020460EB0BDE8F087B8F1010F1F
:10814000E3D1EB8823B1FF2389F809300024F1E75C
:10815000B9F8061053181879A8B1525C587AD98921
:1081600010441144194405221844FFF7C9FC814208
:1081700005D87A4B1B68D807E5D500BEE3E78178C0
:10818000384601F039FB002689F8066089F8076057
:108190006A8871493846FFF7EBFD04460028D2D0C3
:1081A0002946384601F07AFB89F80960C2E700BE2B
:1081B0007372BFE71C0A53D16B881A0A012A0AD0CE
:1081C000022A3AD0654B186810F001004FF00703FF
:1081D000BAD000BEB8E76B78812B20D0862B23D095
:1081E000012BEFD1B8F1010F0BD1EB88012BAAD1F4
:1081F0005B4A01232946384601F068FB002884D1F8
:10820000A1E7B8F1020F80D199F80A100020FFF71A
:10821000A4FE89F80900B0FA80F464098AE7B8F18D
:10822000010F7FF472AFE0E7B8F1010F7FF46DAF9B
:10823000EB88012B87D14B4ADCE76B78812B08D088
:10824000862BBFD1B8F1010F7FF45FAF464A43469A
:10825000D0E7B8F1010F7FF458AF444A0123C9E7D2
:10826000B9F80630D018D15CC38919440144814261
:108270007FF64BAF8378023B052B03D8C378A3422C
:108280003FF443AF037824221844FFF739FCEEE7AC
:10829000DFF8DCA0BAF80200564600283FF456AFDB
:1082A0009AF800200B2101FB0299D9F800402044E4
:1082B000827862457FF44AAF2A78C2F3411912F0FE
:1082C000600F484603D0012854D0072341E06B7863
:1082D0000A2B0BD00B2B29D0204B1C6814F0010467
:1082E0004FF0070334D18AF81C3023E7B8F1010FAF
:1082F00002D0002333770BE7EB88012B40F0298273
:108300005046FFF7EFFB002800F02382C3788DF87A
:10831000083002AA43462946384601F0D7FA0446F7
:10832000002800F016828AF81C9003E7B8F1010FCC
:1083300040F0A0806A8851463846FFF757FD044652
:10834000002800F006822946384601F0A7FAEAE73D
:1083500000BE8AF81C30F9E6B0170020F0ED00E00E
:10836000BA170020FAF60000F9F60000B91700204D
:10837000BC1800201B0A2CD16A88110A022900F0BF
:10838000798106291BD001291ED1727F02B1737732
:1083900095F80190B9F1010F33D009F17F03DBB2F9
:1083A000062B11D8A9F18103062B0DD8DFE813F0B5
:1083B0006B013F003F003F00BA0157013F006B785F
:1083C000812B08D0862B15D0B94B1B68DB0700F139
:1083D000BE8107230CE0B8F1010F8AD1434606F1B4
:1083E0001C022946384601F071FA002881D1FF238A
:1083F0003377ABE6B8F1010F7FF47BAFAD4A0123D1
:10840000EFE7B8F1010F02D1AB4A3023E9E7B8F149
:10841000020F7FF46EAFA849A1F11E00FFF7AAFB7F
:10842000044600287FF465AF0823337782E6B8F16D
:10843000010F7FF45EAFEB88002B00F08A819E4B2A
:1084400002AA03F1300E1446186859689446ACE845
:108450000300083373456246F6D19DF80A20B2BB8B
:10846000B9F1830F08D0B9F1870F2ED0B9F1820F7F
:108470002BD008203077CEE69048FFF733FB10B1C1
:10848000037B8DF80A304FF001130121CDE904136D
:108490000023ADF818304FF6C043ADF8223040F25B
:1084A0009B13ADF8243040F20313ADF82630844B13
:1084B0000A93224630232946384601F007FA04463B
:1084C000002800F046810023AFE70123D9E79DF89B
:1084D0000BA00192BAF1000F4DD17848FFF702FBD3
:1084E000019A28B9724B1B68DA07C2D500BEC0E7F3
:1084F0000378B0F80D10194401441844FFF70AFB43
:10850000B9F1830F804607D0B9F1870F20D0B9F1B8
:10851000820FAED1012200E002798DF80B2098F88D
:1085200000004044FFF710FB98F80230062B1BD0E8
:10853000102B19D0042B9CD1B0F80730B0F80520CF
:108540005A4398F815305343DB08CDF81A30B0E79A
:108550008378062B06D0102B01D0042B89D198F8F4
:108560001620DAE78279D8E7B0F80520B0F80730AE
:1085700053431B01E8E7DDF80C80B8F1000F98D1F8
:108580004E48FFF7AFFA019A0028ABD00378B0F855
:108590000D10194401441844FFF7BCFA0378524601
:1085A0001844A9F18209FFF7CFFAB9F1050F3FF698
:1085B00060AF01A353F829F005860000D1850000C3
:1085C0002D86000073840000738400001F86000065
:1085D000437EA3B1053300EB8303D3F80280D0F8C8
:1085E0001A3042F21072B3FBF2F3CDF80C80B8F1FE
:1085F000000F22D1ADF81E80ADF8208059E7D0F8E9
:108600001E80ECE7437E3BB1053300EB8303D3F8D8
:108610000230D0F81A80E4E7D0F81E30F9E7D0F83D
:10862000158042F21073B8FBF3F3DEE7437E13B913
:10863000D0F82280F5E70023D7E7DDF81A2043B908
:10864000931CB3F5807F28BF4FF48073CDF81E30A4
:108650002FE7013A1A44B2FBF3F30233F1E7B8F122
:10866000010F7FF446AEEB88012B7FF4C0AE43468A
:10867000144AB6E66B78852B54D00DD8012B23D045
:10868000812B7FF4A1AEB8F1010F7FF432AEEB88FD
:10869000002B7FF4B9AEAAE6862B7FF495AEB8F135
:1086A000010F7FF426AEEB88012B7FF4A0AEDFE74D
:1086B000F0ED00E0F9F60000DA180020BC18002008
:1086C00001010008FAF60000B8F1010F3FF49CAE7A
:1086D000B8F1020F7FF40DAE1F49A1F11E00FFF7A4
:1086E00049FA044600283FF49FAE736B1A4A71782A
:1086F0003078B361FFF733FC00287FF4FAAD012333
:108700007377164B30737073B073F073307470748A
:10871000B074F07430757075B075F075A3F80080A2
:10872000307707E5B8F1010F7FF4E3ADEB88022B5A
:108730007FF45DAE3022ADF80820294602AA384603
:1087400001F0C4F8044600287FF4BDAE4FE600BE39
:108750003FE6FF208EE600BFDA180020BC1700209D
:10876000F8B5204C23890546A3B32778DFF880C0ED
:108770000B2606FB07C6366833449E788E4229D105
:10878000626923699A4212D30023384661782373C1
:108790006373A373E37323746374A374E374237523
:1087A0006375A375E375FFF7D7FB012018E000F0B0
:1087B00021FCA0B12046FFF785FA0B4A83B231466F
:1087C000284600F033FC58B9084B1B68DA0706D579
:1087D00000BE05E0054B1B68DB0700D500BE00208E
:1087E000F8BD00BFBC180020BC170020F0ED00E071
:1087F000B01700200A4492B291424FEA400001D8DB
:10880000824201DB121A92B21046704738B5054613
:10881000D41A0846A988A4B29A423CBF04EB41048A
:10882000A4B2B4B1A14205D2914294BF531A8B189D
:108830009BB26B81994209D9EA882968C2F30E027A
:1088400002FB031103F06AFF012038BD5B1A9BB2E3
:10885000F0E72046F9E72DE9F047BDF8204086888B
:108860001D1BADB2A3423CBF05EB4605ADB20746AA
:108870008846F5B1AE4206D29E4294BF9C1BF418C6
:10888000A4B244813546954228BF1546A64213D965
:10889000FA883968A6EB04091FFA89F9C2F30E0AAF
:1088A0004D4552460AFB041109D86A43404603F07D
:1088B00035FF2846BDE8F087A41BA4B2E6E719FB04
:1088C0000AF91FFA89F94A46404603F027FFAA1B16
:1088D000224412FB0AF2396892B208EB0900E6E77B
:1088E000B2F5004F0DD882809DF800200160C3F3DF
:1088F0000E0343EAC233C380002343810381012076
:108900007047002070470389428981889BB292B2E8
:10891000934236BFC2EB41029B1A9B1898B2884221
:1089200028BF084670470289438992B29BB2D31A86
:1089300058425841704703894289818892B29BB25C
:10894000934236BFC2EB41029B1A9B189BB29942DD
:108950008CBF0020012070478288038940899BB228
:1089600080B2834236BFC0EB4200181AC01880B2F2
:10897000824286BF101A80B2002070470289438964
:1089800010B59BB2044692B2FFF740FF61890346DF
:1089900082B289B2A088FFF72DFF6081184610BD12
:1089A00037B503894589ADB2044600959BB2FFF700
:1089B00052FF61890346024689B2A088FFF71AFF79
:1089C0006081184603B030BD0289438992B29BB2E0
:1089D000FFF71CBF37B5058901910446FFF7ABFFD0
:1089E000ADB2019910B1E079C00912D0A2882B462E
:1089F0009A4210D9E2882068C2F30E0202FB0300FB
:108A000003F08CFEA08801222946FFF7F3FE2081A7
:108A1000012003B030BD9B1A9BB2E9E72DE9F84F66
:108A2000074688461546DAB1C37906894189B0F808
:108A30000490DB09B6B289B215D18E4239BFC1EBC1
:108A40004904A419711A8CB238BFA4B24C4536BF80
:108A5000A9EB04040024A4B2A24228BF254605BB0A
:108A60002846BDE8F88FC3884A45C3F30E0306D3F2
:108A7000A2EB090503FB05880E464D46EFE78E4243
:108A80004FEA490236BF531A731A9B199BB22B4403
:108A9000934206DBA9EB050292B24846FFF7AAFE15
:108AA000064634464C4517D2FA883868A9EB040AC2
:108AB0001FFA8AFAC2F30E0BAA455A460BFB0400B2
:108AC0000ED36A43414603F029FEB8882A46314650
:108AD000FFF790FE3881C3E7A4EB0904A4B2E1E7F5
:108AE0001AFB0BFA1FFA8AFA5246414603F016FEA9
:108AF000A5EB0903234413FB0BF2386892B208EB91
:108B00000A01E0E700234381038101207047C37914
:108B1000B1EBD31F1CBF61F3C713C37101207047B2
:108B20002DE9F041194D1A4E1A4F8046002429783C
:108B30008A1DE3B2D2B29A4210D8342200211648DC
:108B400003F014FE1022FF21144803F00FFEBDE8CD
:108B5000F04113481022FF2103F008BE99424FF064
:108B600024020AD9396802FB03134BB90D4B1B6869
:108B7000DB0700D500BEBDE8F0815B1A02FB036392
:108B8000DB68404698470134D1E700BF1019002048
:108B9000FCF600000C190020111900201519002006
:108BA00025190020F0ED00E0034A034610780BB1D0
:108BB00001F0B4B901F0C2B93001002037B50C465C
:108BC00005460868019200F0C1FE2368019A012160
:108BD000284603B0BDE83040184770477047002072
:108BE00070470020704770477047704770470023F8
:108BF0000370184670470000024B5878003818BFC1
:108C00000120704711190020024B1878C0F3800032
:108C1000704700BF111900202DE9F84F2E4F3B7807
:108C2000FF2B05460E4655D141B92C4B1B68DA0780
:108C300000D500BE00242046BDE8F88F3422DFF8BE
:108C4000B0802748002103F091FD264B08F1040075
:108C500000241C70FFF756FF234BC3F80080DFF899
:108C600094804046FFF7C3FF98F800201F4BF92A75
:108C70001860994629D9194B1B68DB07DAD500BE65
:108C8000D9E799421DD9D9F800200AFB0323002B0C
:108C9000CBD05B680134002BC7D0984798F8001000
:108CA0008A1DE3B2D2B29A42EBD8314628463D70D3
:108CB00001F0F4F804460028DDD0284601F02EF932
:108CC000B9E75B1A0AFB03B3E3E7DFF82CB04FF018
:108CD000240AE3E70124AEE730010020F0ED00E0D4
:108CE000111900204C190020481900200C190020EF
:108CF0002001002010190020FCF600002DE9F043AF
:108D00004378023B85B005460E46052B16D8DFE8B2
:108D100013F00600A6002A003200BD00C200834BFB
:108D20001A786FF300021A701A7800216FF341026B
:108D30001A7059701A7861F382021A707C4B1F689E
:108D400016B93B68304698472946381DFFF742FE62
:108D5000044616B93B6801209847002C73D0697807
:108D6000287832468FE0714B1A78D70770D51A7879
:108D700042F00402E1E76D4A1378DC0768D5137806
:108D80006FF382031370D9E798424FF0240162D940
:108D9000D9F8002001FB032323B11B6A13B16968D2
:108DA0002878984701343878821DE3B2D2B29A42CB
:108DB000EAD85E4C2378580727D523786FF38203CF
:108DC00023700023CDE9013303932B788DF8043011
:108DD00005238DF80530564BD3F800801EB9D8F81E
:108DE00000303046984701A908F10400FFF7F2FD72
:108DF00007461EB9D8F8003001209847002F35D11A
:108E00004C4B1B68D90700D500BEE378DA071FD5A5
:108E10000023019303932B788DF8043003238DF8FE
:108E200005306B680293424B1D6816B92B683046BB
:108E3000984701A9281DFFF7CDFD044616B92B68F8
:108E400001209847D4B93B4B1B68DB0700D500BE17
:108E500005B0BDE8F0831B1A01FB03839DE7364F85
:108E6000DFF8E080DFF8D89000249CE79DF805103B
:108E70009DF804003246FFF7B0FEC6E79DF80510E6
:108E80009DF804003246FFF7A8FEE1E72B4A13786D
:108E90000133DBB276E7017911F07F033FF44EAF87
:108EA000224C254F580004EB430303EBD1133F78CA
:108EB0001B7DBB424FEAD11229D2214F3F6803EB01
:108EC000C30317EB83033FF439AFDF69002F3FF48F
:108ED00035AF044414446A7994F824306FF30003E6
:108EE00084F8243094F824306FF3820384F824301B
:108EF0002878AB682034B8470028A9D1237943F0FB
:108F000001032371237943F00403237116E707F16A
:108F1000060C5FFA8CFC6345BFF410AFDB1B094FF6
:108F20004FF0240C0CFB0373CFE700BF1119002096
:108F300048190020F0ED00E0101900204C19002025
:108F40000C190020FCF6000038B58A7812F078027F
:108F50000C4606D00A4B1B68DB0700D500BE00207C
:108F600038BD084B1D78084B2046997801F0E2F98E
:108F70000028EFD021462846BDE8384001F02EB841
:108F8000F0ED00E030010020111900202DE9F0473C
:108F9000DDE9085681460C4690469A460027B845BA
:108FA00001DC01200CE06378052B04D1E37803F0A9
:108FB0000303534508D00E4B1B68DA0702D4002088
:108FC000BDE8F08700BEFAE721464846FFF7BCFF40
:108FD00028B9074B1B68DB07F1D500BEF0E7A37883
:108FE000DA0914BF33702B70237801371C44D6E79D
:108FF000F0ED00E0CB0901F07F00243303EB4003E8
:1090000002480021184401F069B900BF111900207D
:10901000CB0901F07F00243303EB40030248002119
:10902000184401F076B900BF11190020154838B571
:1090300001F07F0500EB450000EBD11420342079CE
:10904000C00707D5104B1B68DA0701D4002038BDD4
:1090500000BEFBE7207940F0010020710B4800784A
:1090600001F004F80028F2D1237960F300032371A2
:10907000237960F382032371034B1B68DB07E5D57B
:1090800000BEE4E711190020F0ED00E030010020FF
:10909000054B01F07F0203EB420303EBD11191F882
:1090A000240000F0010070471119002010B50C4B8E
:1090B00018780C4601F02CF80A4B04F07F0103EB02
:1090C000410303EBD41191F8243043F0020381F8FB
:1090D000243091F8243043F0010381F8243010BD8E
:1090E000300100201119002010B50C4B18780C46E7
:1090F00001F01BF80A4B04F07F0103EB410303EB83
:10910000D41191F824306FF3410381F8243091F8A1
:1091100024306FF3000381F8243010BD30010020AB
:10912000111900202DE9F04F9C4B1B78FF2B87B0C5
:109130003DD0DFF888A29A4B1D682C46002054F8D9
:10914000043B9847204603A9FFF718FC2B68044608
:10915000012098475CB39DF80D30013B072B00F2CE
:109160002883DFE813F0080013001D0303030E0338
:109170001C00B90216039DF80C00FFF7D1FC00F0AB
:10918000DDFB884B9DF810209A70D4E79DF80C0009
:10919000FFF7C6FC00F0D2FBFFF726FDCBE7824AC3
:1091A00013783BB9814B1B68DC0700D500BE07B0C4
:1091B000BDE8F08F1378013BDBB21370137803F036
:1091C000FF00002BB7D1774C9DF80C50237843F06B
:1091D0000103237094F8243060F3000384F82430F2
:1091E00094F8243060F3820384F8243094F8253016
:1091F00060F3000384F8253094F8253060F382038F
:1092000084F8253000F0A2FB9DF8103003F06000D8
:10921000602806D1654B1B68DD0740F1988000BED1
:1092200095E040280BD1624800F090FB04AA012190
:109230002846FDF745F900287FF47DAF87E003F06D
:109240001F03012B00F0AE81022B00F0E781002B01
:10925000E0D1202820D19DF814300F2B77D81C4462
:109260009AF80030217999420CD2524B1B6801EBDD
:10927000C10113EB81016AD004AA14312846FFF71B
:109280009DFCD8E79A1DD2B2914260D2C91A4A4BCE
:10929000242202FB0131EFE70028BBD19DF81130F9
:1092A000092BB7D801A252F823F000BF8395000024
:1092B00071950000159200005D9500001592000068
:1092C000D5920000AB94000015920000EF920000D0
:1092D000F992000004A800F03FFB9DF81210284608
:1092E00000F00AFF237843F00203237023E763783A
:1092F0008DF80A3001234EE19DF8126063789E429A
:1093000047D063785BB10021284600F03BFE284639
:1093100000F0ABFEA7782846FFF702FCA770667046
:10932000002E00F0BF80701EC0B2FCF7B1FE10B17D
:109330004378022B16D01D4B1B68DB0700F1B08071
:109340001A4B1B68DF0700D500BE002363709DF831
:109350000C00002100F0DCFE9DF80C00802100F0E4
:10936000D7FEE8E6C379C3F38012C3F340131B01B1
:1093700043EA4213227822F03002134323704388D9
:10938000C31800F109060093009BB34218D8FFF7F9
:109390002AFC04A9284600F081FACCE6300100201E
:1093A00048190020111900204C190020F0ED00E0B0
:1093B000C16400000C190020FCF600001019002008
:1093C00073780B2B03BF337896F80380F6184FF0B1
:1093D00001087378042BAED1009B9A1B93B20193C2
:1093E0004FF0000B9AF800309A1D5FFA8BF7D2B25B
:1093F000BA42A0D9BB424FF024093DD9C54B1B68E6
:1094000009FB0739B9F1000F95D0019AD9F810304E
:10941000314628469847082802463ED9019B834298
:109420003BD3B8F1010F14D1D9F81030BA498B42AF
:1094300008BF4FF00208B9498B420AD17379012B5A
:1094400007D1B379012B04D1F379002B08BF4FF07A
:1094500002080021CBB2984513D83B463146B048AC
:10946000019200F0ADFF9AF80030019A0633DBB2AA
:10947000BB42164488D85EE7AA4AFB1A09FB0329B7
:10948000C3E7B0780344A84850FA83F30131187950
:10949000FF287FF450AF1F71DCE70BF1010BA1E750
:1094A00000BE4DE7FFF7A0FB73E7BDF81200030A0B
:1094B0005A1EC0B20E2A3FF64AAF01A151F822F05F
:1094C000FD94000025950000439500004F93000097
:1094D0004F93000057950000259500004F93000022
:1094E0004F9300004F9300004F9300004F930000F4
:1094F0004F9300004F93000015950000FCF7C4FD4A
:10950000024600283FF486AE122304A9284600F044
:10951000DDF990E6FCF7D0FF024600283FF417AFD4
:109520004388F2E7022B07D1FCF7B2FD00283FF495
:1095300071AE43880246E8E7FFF753FB0028F8D1F5
:1095400005E7BDF81410FCF7A9FD024600283FF41A
:10955000FEAE0378D9E7FFF742FBF6E7BDF812301D
:10956000012B7FF4F4AE237843F00803237010E757
:10957000BDF81230012B7FF4EAAE23786FF3C303FA
:10958000F4E72378C3F340129B0803F0020313436C
:10959000ADF80A3002230DF10A0204A9284600F0B2
:1095A00095F9C8E59DF814300F2B3FF6D0AE1C445A
:1095B0009AF800302179994225D2564B1B6801EB6D
:1095C000C10113EB81013FF4C2AE04AA1431284655
:1095D000FFF7F4FA00287FF4AEAD9DF8103013F0D9
:1095E00060047FF4B4AE9DF811300A3B012B3FF6C6
:1095F000AEAE00F0ABF99DF811300A2B7FF4C9AE86
:109600008DF80A4076E69A1DD2B29142BFF49FAE21
:10961000C91A444B242202FB0131D6E79DF81410ED
:1096200011F0780F7FF4F6AD01F07F035A0004EBE0
:10963000430303EBD113CF091E7D9AF800309E42FD
:109640000DD2344B1B6806EBC60603EB8606A8B1A9
:10965000002E3FF47CAE04AA06F114010EE603F1DD
:10966000060C5FFA8CFC664580F0AA80F61A2D4B3A
:109670004FF0240C0CFB06360028ECD19DF811307D
:1096800003F0FD0001280AD0002B7FF4C3AD264B68
:109690001A44174497F82430C3F3400378E7BDF821
:1096A000122022B9012B284613D1FFF71DFD002EF1
:1096B0003FF441AD06F1140104AA2846FFF77EFAF3
:1096C000002000F043F994F82530DE073FF533AD74
:1096D0005FE6FFF7EBFCEAE79DF81010124B01F094
:1096E0007F0403EB440303EBD11393F824006FF3DF
:1096F000000083F8240093F824006FF3820083F8BD
:1097000024009CB9059B9DF811209DF80C0000F0E9
:1097100031F910E50C190020E9670000156F000011
:1097200025190020FCF60000111900201B7D9AF875
:10973000002093420FD2254A126803EBC30312EBB9
:1097400083033FF42FAD9C699DF81120059B9DF884
:109750000C00A047EFE4901DC0B28342BFF422ADDD
:109760009B1A1B4A242000FB0323ECE7194B1A78B1
:10977000D0077FF5E0AC1878C0F3C000FFF735FAEA
:10978000D9E4144B1B78D9077FF5D5ACFFF72EFA37
:10979000D1E4049B002B3FF4CEAC05989847CAE473
:1097A0000C4BDB78DA077FF5C6AC0498FFF716FAA6
:1097B000C1E4094B1B68DB077FF5BDAC00BEBAE412
:1097C00000287FF4C4AD002658E700BF0C19002024
:1097D000FCF6000011190020F0ED00E0054B01F04F
:1097E0007F0203EB420303EBD11191F82400C0F395
:1097F000400070471119002010B50F4B18780C4627
:1098000000F032FC0D4B04F07F0103EB410303EB4E
:10981000D41191F824306FF3410381F8243091F88A
:1098200024306FF3000381F8243091F824306FF373
:10983000820381F8243010BD30010020111900206E
:1098400037B514490446CA89888991F90050831AAA
:109850009BB2402B28BF4023002D10DA904214D039
:109860001A4689680C48019302F058FF0A4A019B86
:109870008021204603B0BDE83040FFF7D7BB9042BF
:109880004FF0000103D10022F3E78021FBE7024AF9
:10989000EFE700BF901900205019002030B40A4CA7
:1098A00005460A4608684968234603C392F9002022
:1098B00000239A42C4E9023328461A4630BCACBFA2
:1098C00080211946FFF7B2BB90190020F8B5194E58
:1098D0000C46054608684968B260374603C7002150
:1098E000F181E1888B4228BF0B46B38179B143B146
:1098F0003AB9114B1B68DA0701D40020F8BD00BE4D
:10990000FBE72846FFF79CFF68B10120F6E794F9D2
:109910000030002B0A460B462846ACBF80210021B0
:10992000FFF784FBF0E7044B1B68DB07E5D500BEBF
:10993000E4E700BF90190020F0ED00E00248142297
:10994000002102F013BF00BF90190020014B1861E5
:10995000704700BF9019002010B50246044C006803
:109960005168234603C30023C4E9023310BD00BF7E
:1099700090190020F8B52F4F1E463B78C909B1EB6E
:10998000D31F05463C4614D03EB12B4B1B68DA076B
:1099900001D40020F8BD00BEFBE7394600F000FB13
:1099A0003B690BB90120F5E73A4603212846984761
:1099B000F8E797F90030002B06DBB8680028E8D0FC
:1099C0001E49324602F0AAFEA268E38932443344BB
:1099D000A260E2889BB29A42E38101D03F2E24D854
:1099E00023699BB994F90030002B4FF000031A460D
:1099F000ACBF802119462846FFF718FB0028D1D1BB
:109A00000D4B1B68DB07C4D500BEC3E70221094A22
:109A10002846984701460028E4D1284600F078FB04
:109A20008021284600F074FBBCE72846FFF708FFBA
:109A3000E4E700BF90190020F0ED00E0501900208D
:109A4000034A034610780BB100F0DCB900F0DDB931
:109A50003401002008B9FFF7F3BF704710B90120A7
:109A6000FFF7EEBF704700000138C3B2042B10B4FB
:109A700007D80F4C5E234343E21810321279D20705
:109A800008D40C4B1B68DB0700D500BE00205DF836
:109A9000044B704701F07F00C9093D3101EB4001E3
:109AA000C818204400215DF8044B00F017BC00BF2B
:109AB000A4190020F0ED00E00138C3B2042B10B46B
:109AC00014D80C4C5E234343E21810321279D207AB
:109AD0000CD501F07F00C9093D3101EB4001C818E8
